{
  "contractName": "AccessControlService",
  "abi": [
    {
      "inputs": [],
      "stateMutability": "nonpayable",
      "type": "constructor"
    },
    {
      "inputs": [
        {
          "internalType": "address",
          "name": "account",
          "type": "address"
        },
        {
          "internalType": "uint8",
          "name": "createdBy",
          "type": "uint8"
        },
        {
          "internalType": "bytes32",
          "name": "login",
          "type": "bytes32"
        },
        {
          "internalType": "bytes32",
          "name": "password",
          "type": "bytes32"
        },
        {
          "internalType": "bytes32",
          "name": "pke2",
          "type": "bytes32"
        },
        {
          "internalType": "uint8",
          "name": "user_id",
          "type": "uint8"
        }
      ],
      "name": "createUser",
      "outputs": [],
      "stateMutability": "nonpayable",
      "type": "function"
    },
    {
      "inputs": [
        {
          "internalType": "address",
          "name": "account",
          "type": "address"
        }
      ],
      "name": "auth",
      "outputs": [
        {
          "internalType": "bytes32",
          "name": "login",
          "type": "bytes32"
        },
        {
          "internalType": "bytes32",
          "name": "password",
          "type": "bytes32"
        },
        {
          "internalType": "bytes32",
          "name": "pke2",
          "type": "bytes32"
        }
      ],
      "stateMutability": "view",
      "type": "function",
      "constant": true
    },
    {
      "inputs": [
        {
          "internalType": "address",
          "name": "account",
          "type": "address"
        }
      ],
      "name": "getUser",
      "outputs": [
        {
          "internalType": "uint8",
          "name": "createdBy",
          "type": "uint8"
        },
        {
          "internalType": "bytes32",
          "name": "login",
          "type": "bytes32"
        },
        {
          "internalType": "bytes32",
          "name": "password",
          "type": "bytes32"
        },
        {
          "internalType": "bytes32",
          "name": "pke2",
          "type": "bytes32"
        },
        {
          "internalType": "uint8",
          "name": "user_id",
          "type": "uint8"
        }
      ],
      "stateMutability": "view",
      "type": "function",
      "constant": true
    },
    {
      "inputs": [
        {
          "internalType": "address",
          "name": "account",
          "type": "address"
        }
      ],
      "name": "getUserStruct",
      "outputs": [
        {
          "components": [
            {
              "internalType": "uint8",
              "name": "createdBy",
              "type": "uint8"
            },
            {
              "internalType": "bytes32",
              "name": "login",
              "type": "bytes32"
            },
            {
              "internalType": "bytes32",
              "name": "password",
              "type": "bytes32"
            },
            {
              "internalType": "bytes32",
              "name": "pke2",
              "type": "bytes32"
            },
            {
              "internalType": "uint8",
              "name": "user_id",
              "type": "uint8"
            }
          ],
          "internalType": "struct AccessControlService.User",
          "name": "",
          "type": "tuple"
        }
      ],
      "stateMutability": "view",
      "type": "function",
      "constant": true
    },
    {
      "inputs": [
        {
          "internalType": "address",
          "name": "account",
          "type": "address"
        }
      ],
      "name": "removeUser",
      "outputs": [],
      "stateMutability": "nonpayable",
      "type": "function"
    },
    {
      "inputs": [
        {
          "internalType": "uint8",
          "name": "ac_id",
          "type": "uint8"
        },
        {
          "internalType": "bytes32",
          "name": "accessType",
          "type": "bytes32"
        },
        {
          "internalType": "address",
          "name": "account",
          "type": "address"
        },
        {
          "internalType": "bytes32",
          "name": "crypted_AES",
          "type": "bytes32"
        },
        {
          "internalType": "uint8",
          "name": "document_id",
          "type": "uint8"
        },
        {
          "internalType": "bytes32",
          "name": "document_signature",
          "type": "bytes32"
        }
      ],
      "name": "addAccessControl",
      "outputs": [],
      "stateMutability": "nonpayable",
      "type": "function"
    },
    {
      "inputs": [
        {
          "internalType": "uint8",
          "name": "ac_id",
          "type": "uint8"
        }
      ],
      "name": "getAccessControl",
      "outputs": [
        {
          "internalType": "bytes32",
          "name": "accessType",
          "type": "bytes32"
        },
        {
          "internalType": "address",
          "name": "account",
          "type": "address"
        },
        {
          "internalType": "bytes32",
          "name": "crypted_AES",
          "type": "bytes32"
        },
        {
          "internalType": "uint8",
          "name": "document_id",
          "type": "uint8"
        },
        {
          "internalType": "bytes32",
          "name": "document_signature",
          "type": "bytes32"
        }
      ],
      "stateMutability": "view",
      "type": "function",
      "constant": true
    },
    {
      "inputs": [
        {
          "internalType": "uint8",
          "name": "ac_id",
          "type": "uint8"
        }
      ],
      "name": "getAccessControlStruct",
      "outputs": [
        {
          "components": [
            {
              "internalType": "bytes32",
              "name": "accessType",
              "type": "bytes32"
            },
            {
              "internalType": "address",
              "name": "account",
              "type": "address"
            },
            {
              "internalType": "bytes32",
              "name": "crypted_AES",
              "type": "bytes32"
            },
            {
              "internalType": "uint8",
              "name": "document_id",
              "type": "uint8"
            },
            {
              "internalType": "bytes32",
              "name": "document_signature",
              "type": "bytes32"
            }
          ],
          "internalType": "struct AccessControlService.AccessControl",
          "name": "",
          "type": "tuple"
        }
      ],
      "stateMutability": "view",
      "type": "function",
      "constant": true
    },
    {
      "inputs": [
        {
          "internalType": "uint8",
          "name": "ac_id",
          "type": "uint8"
        }
      ],
      "name": "getAccessType",
      "outputs": [
        {
          "internalType": "bytes32",
          "name": "accessType",
          "type": "bytes32"
        }
      ],
      "stateMutability": "view",
      "type": "function",
      "constant": true
    },
    {
      "inputs": [
        {
          "internalType": "uint8",
          "name": "ac_id",
          "type": "uint8"
        },
        {
          "internalType": "bytes32",
          "name": "accessType",
          "type": "bytes32"
        },
        {
          "internalType": "address",
          "name": "account",
          "type": "address"
        },
        {
          "internalType": "bytes32",
          "name": "crypted_AES",
          "type": "bytes32"
        },
        {
          "internalType": "uint8",
          "name": "document_id",
          "type": "uint8"
        },
        {
          "internalType": "bytes32",
          "name": "document_signature",
          "type": "bytes32"
        }
      ],
      "name": "updateAccessControl",
      "outputs": [],
      "stateMutability": "nonpayable",
      "type": "function"
    },
    {
      "inputs": [
        {
          "internalType": "uint8",
          "name": "ac_id",
          "type": "uint8"
        }
      ],
      "name": "deleteAccessControl",
      "outputs": [],
      "stateMutability": "nonpayable",
      "type": "function"
    },
    {
      "inputs": [
        {
          "internalType": "address",
          "name": "owner",
          "type": "address"
        },
        {
          "internalType": "uint8",
          "name": "document_id",
          "type": "uint8"
        },
        {
          "internalType": "bytes32",
          "name": "signature",
          "type": "bytes32"
        }
      ],
      "name": "createDocument",
      "outputs": [],
      "stateMutability": "nonpayable",
      "type": "function"
    },
    {
      "inputs": [
        {
          "internalType": "uint8",
          "name": "document_id",
          "type": "uint8"
        }
      ],
      "name": "getDocumentStruct",
      "outputs": [
        {
          "components": [
            {
              "internalType": "address",
              "name": "owner",
              "type": "address"
            },
            {
              "internalType": "uint8",
              "name": "document_id",
              "type": "uint8"
            },
            {
              "internalType": "bytes32",
              "name": "signature",
              "type": "bytes32"
            }
          ],
          "internalType": "struct AccessControlService.Document",
          "name": "",
          "type": "tuple"
        }
      ],
      "stateMutability": "view",
      "type": "function",
      "constant": true
    }
  ],
  "bytecode": "0x608060405234801561001057600080fd5b5060ff6000806101000a81548160ff021916908360ff1602179055506113118061003b6000396000f3fe608060405234801561001057600080fd5b50600436106100cf5760003560e01c8063985751881161008c578063cadf0c6411610066578063cadf0c6414610238578063cd5d211814610254578063eeeaf73214610286578063ef71f6a3146102ba576100cf565b806398575188146101d057806399385a3f146101ec578063a62372e214610208576100cf565b806327260373146100d45780633007fcea14610104578063405160a414610120578063578bd5a514610150578063604e37061461016c5780636f77926b1461019c575b600080fd5b6100ee60048036038101906100e99190610ee6565b6102d6565b6040516100fb91906111c4565b60405180910390f35b61011e60048036038101906101199190610e5d565b610386565b005b61013a60048036038101906101359190610ee6565b610463565b60405161014791906111a9565b60405180910390f35b61016a60048036038101906101659190610e0e565b610527565b005b61018660048036038101906101819190610de5565b6105f4565b60405161019391906111df565b60405180910390f35b6101b660048036038101906101b19190610de5565b6106a5565b6040516101c79594939291906111fa565b60405180910390f35b6101ea60048036038101906101e59190610de5565b610829565b005b61020660048036038101906102019190610f0f565b6108ae565b005b610222600480360381019061021d9190610ee6565b61099e565b60405161022f9190611104565b60405180910390f35b610252600480360381019061024d9190610ee6565b6109c4565b005b61026e60048036038101906102699190610de5565b610a36565b60405161027d93929190611172565b60405180910390f35b6102a0600480360381019061029b9190610ee6565b610b11565b6040516102b195949392919061111f565b60405180910390f35b6102d460048036038101906102cf9190610f0f565b610bea565b005b6102de610cda565b600360008360ff1660ff1681526020019081526020016000206040518060600160405290816000820160009054906101000a900473ffffffffffffffffffffffffffffffffffffffff1673ffffffffffffffffffffffffffffffffffffffff1673ffffffffffffffffffffffffffffffffffffffff1681526020016000820160149054906101000a900460ff1660ff1660ff1681526020016001820154815250509050919050565b60006040518060a001604052808760ff1681526020018681526020018581526020018481526020018360ff16815250905080600160008973ffffffffffffffffffffffffffffffffffffffff1673ffffffffffffffffffffffffffffffffffffffff16815260200190815260200160002060008201518160000160006101000a81548160ff021916908360ff16021790555060208201518160010155604082015181600201556060820151816003015560808201518160040160006101000a81548160ff021916908360ff16021790555090505050505050505050565b61046b610d17565b600260008360ff1660ff1681526020019081526020016000206040518060a0016040529081600082015481526020016001820160009054906101000a900473ffffffffffffffffffffffffffffffffffffffff1673ffffffffffffffffffffffffffffffffffffffff1673ffffffffffffffffffffffffffffffffffffffff168152602001600282015481526020016003820160009054906101000a900460ff1660ff1660ff1681526020016004820154815250509050919050565b600060405180606001604052808573ffffffffffffffffffffffffffffffffffffffff1681526020018460ff16815260200183815250905080600360008560ff1660ff16815260200190815260200160002060008201518160000160006101000a81548173ffffffffffffffffffffffffffffffffffffffff021916908373ffffffffffffffffffffffffffffffffffffffff16021790555060208201518160000160146101000a81548160ff021916908360ff1602179055506040820151816001015590505050505050565b6105fc610d68565b600160008373ffffffffffffffffffffffffffffffffffffffff1673ffffffffffffffffffffffffffffffffffffffff1681526020019081526020016000206040518060a00160405290816000820160009054906101000a900460ff1660ff1660ff1681526020016001820154815260200160028201548152602001600382015481526020016004820160009054906101000a900460ff1660ff1660ff16815250509050919050565b6000806000806000600160008773ffffffffffffffffffffffffffffffffffffffff1673ffffffffffffffffffffffffffffffffffffffff16815260200190815260200160002060000160009054906101000a900460ff16600160008873ffffffffffffffffffffffffffffffffffffffff1673ffffffffffffffffffffffffffffffffffffffff16815260200190815260200160002060010154600160008973ffffffffffffffffffffffffffffffffffffffff1673ffffffffffffffffffffffffffffffffffffffff16815260200190815260200160002060020154600160008a73ffffffffffffffffffffffffffffffffffffffff1673ffffffffffffffffffffffffffffffffffffffff16815260200190815260200160002060030154600160008b73ffffffffffffffffffffffffffffffffffffffff1673ffffffffffffffffffffffffffffffffffffffff16815260200190815260200160002060040160009054906101000a900460ff169450945094509450945091939590929450565b600160008273ffffffffffffffffffffffffffffffffffffffff1673ffffffffffffffffffffffffffffffffffffffff168152602001908152602001600020600080820160006101000a81549060ff02191690556001820160009055600282016000905560038201600090556004820160006101000a81549060ff0219169055505050565b60006040518060a001604052808781526020018673ffffffffffffffffffffffffffffffffffffffff1681526020018581526020018460ff16815260200183815250905080600260008960ff1660ff1681526020019081526020016000206000820151816000015560208201518160010160006101000a81548173ffffffffffffffffffffffffffffffffffffffff021916908373ffffffffffffffffffffffffffffffffffffffff1602179055506040820151816002015560608201518160030160006101000a81548160ff021916908360ff1602179055506080820151816004015590505050505050505050565b6000600260008360ff1660ff168152602001908152602001600020600001549050919050565b600260008260ff1660ff1681526020019081526020016000206000808201600090556001820160006101000a81549073ffffffffffffffffffffffffffffffffffffffff021916905560028201600090556003820160006101000a81549060ff02191690556004820160009055505050565b6000806000600160008573ffffffffffffffffffffffffffffffffffffffff1673ffffffffffffffffffffffffffffffffffffffff16815260200190815260200160002060010154600160008673ffffffffffffffffffffffffffffffffffffffff1673ffffffffffffffffffffffffffffffffffffffff16815260200190815260200160002060020154600160008773ffffffffffffffffffffffffffffffffffffffff1673ffffffffffffffffffffffffffffffffffffffff168152602001908152602001600020600301549250925092509193909250565b6000806000806000600260008760ff1660ff16815260200190815260200160002060000154600260008860ff1660ff16815260200190815260200160002060010160009054906101000a900473ffffffffffffffffffffffffffffffffffffffff16600260008960ff1660ff16815260200190815260200160002060020154600260008a60ff1660ff16815260200190815260200160002060030160009054906101000a900460ff16600260008b60ff1660ff168152602001908152602001600020600401549450945094509450945091939590929450565b60006040518060a001604052808781526020018673ffffffffffffffffffffffffffffffffffffffff1681526020018581526020018460ff16815260200183815250905080600260008960ff1660ff1681526020019081526020016000206000820151816000015560208201518160010160006101000a81548173ffffffffffffffffffffffffffffffffffffffff021916908373ffffffffffffffffffffffffffffffffffffffff1602179055506040820151816002015560608201518160030160006101000a81548160ff021916908360ff1602179055506080820151816004015590505050505050505050565b6040518060600160405280600073ffffffffffffffffffffffffffffffffffffffff168152602001600060ff168152602001600080191681525090565b6040518060a0016040528060008019168152602001600073ffffffffffffffffffffffffffffffffffffffff16815260200160008019168152602001600060ff168152602001600080191681525090565b6040518060a00160405280600060ff168152602001600080191681526020016000801916815260200160008019168152602001600060ff1681525090565b600081359050610db581611296565b92915050565b600081359050610dca816112ad565b92915050565b600081359050610ddf816112c4565b92915050565b600060208284031215610df757600080fd5b6000610e0584828501610da6565b91505092915050565b600080600060608486031215610e2357600080fd5b6000610e3186828701610da6565b9350506020610e4286828701610dd0565b9250506040610e5386828701610dbb565b9150509250925092565b60008060008060008060c08789031215610e7657600080fd5b6000610e8489828a01610da6565b9650506020610e9589828a01610dd0565b9550506040610ea689828a01610dbb565b9450506060610eb789828a01610dbb565b9350506080610ec889828a01610dbb565b92505060a0610ed989828a01610dd0565b9150509295509295509295565b600060208284031215610ef857600080fd5b6000610f0684828501610dd0565b91505092915050565b60008060008060008060c08789031215610f2857600080fd5b6000610f3689828a01610dd0565b9650506020610f4789828a01610dbb565b9550506040610f5889828a01610da6565b9450506060610f6989828a01610dbb565b9350506080610f7a89828a01610dd0565b92505060a0610f8b89828a01610dbb565b9150509295509295509295565b610fa18161124d565b82525050565b610fb08161124d565b82525050565b610fbf8161125f565b82525050565b610fce8161125f565b82525050565b60a082016000820151610fea6000850182610fb6565b506020820151610ffd6020850182610f98565b5060408201516110106040850182610fb6565b50606082015161102360608501826110e6565b5060808201516110366080850182610fb6565b50505050565b6060820160008201516110526000850182610f98565b50602082015161106560208501826110e6565b5060408201516110786040850182610fb6565b50505050565b60a08201600082015161109460008501826110e6565b5060208201516110a76020850182610fb6565b5060408201516110ba6040850182610fb6565b5060608201516110cd6060850182610fb6565b5060808201516110e060808501826110e6565b50505050565b6110ef81611289565b82525050565b6110fe81611289565b82525050565b60006020820190506111196000830184610fc5565b92915050565b600060a0820190506111346000830188610fc5565b6111416020830187610fa7565b61114e6040830186610fc5565b61115b60608301856110f5565b6111686080830184610fc5565b9695505050505050565b60006060820190506111876000830186610fc5565b6111946020830185610fc5565b6111a16040830184610fc5565b949350505050565b600060a0820190506111be6000830184610fd4565b92915050565b60006060820190506111d9600083018461103c565b92915050565b600060a0820190506111f4600083018461107e565b92915050565b600060a08201905061120f60008301886110f5565b61121c6020830187610fc5565b6112296040830186610fc5565b6112366060830185610fc5565b61124360808301846110f5565b9695505050505050565b600061125882611269565b9050919050565b6000819050919050565b600073ffffffffffffffffffffffffffffffffffffffff82169050919050565b600060ff82169050919050565b61129f8161124d565b81146112aa57600080fd5b50565b6112b68161125f565b81146112c157600080fd5b50565b6112cd81611289565b81146112d857600080fd5b5056fea26469706673582212200d9c035077cbeb908fcda0a8583b10c5c7b03dbd3c58c99a7842d8add343c99764736f6c63430007060033",
  "immutableReferences": {},
  "source": "// contracts/aclService.sol\n// SPDX-License-Identifier: MIT\npragma solidity ^0.7.0;\npragma experimental ABIEncoderV2;\n\ncontract AccessControlService {\n    uint8 max_user_id;\n\n    constructor () {\n        max_user_id = 255;\n    }\n\n    // Users\n    struct User {\n        uint8   createdBy;\n        bytes32 login;\n        bytes32 password;\n        bytes32 pke2;\n        uint8   user_id;\n    }\n    mapping(address => User) private usersList;\n\n    function createUser(address account,\n                        uint8   createdBy,\n                        bytes32 login,\n                        bytes32 password,\n                        bytes32 pke2,\n                        uint8   user_id) external {\n        User memory _user = User({createdBy: createdBy,\n                                  login:     login,\n                                  password:  password,\n                                  pke2:      pke2,\n                                  user_id:   user_id});\n        usersList[account] = _user;\n    }\n\n    function auth(address account) external view returns (bytes32 login, bytes32 password, bytes32 pke2) {\n        return(usersList[account].login,\n               usersList[account].password,\n               usersList[account].pke2);\n    }\n\n    function getUser(address account) external view returns (uint8 createdBy, bytes32 login, bytes32 password, bytes32 pke2, uint8 user_id) {\n        return(usersList[account].createdBy,\n               usersList[account].login,\n               usersList[account].password,\n               usersList[account].pke2,\n               usersList[account].user_id);\n    }\n\n    function getUserStruct(address account) external view returns (User memory) {\n        return(usersList[account]);\n    }\n\n    function removeUser(address account) external {\n        delete usersList[account];\n    }\n\n    // AccessControl\n    struct AccessControl {\n        bytes32 accessType;\n        address account;\n        bytes32 crypted_AES;\n        uint8   document_id;\n        bytes32 document_signature;\n    }\n    mapping(uint8 => AccessControl) private accessControlList;\n\n    function addAccessControl(uint8   ac_id,\n                              bytes32 accessType,\n                              address account,\n                              bytes32 crypted_AES,\n                              uint8   document_id,\n                              bytes32 document_signature) external {\n        AccessControl memory _ac = AccessControl({accessType:         accessType,\n                                                  account:            account,\n                                                  crypted_AES:        crypted_AES,\n                                                  document_id:        document_id,\n                                                  document_signature: document_signature});\n        accessControlList[ac_id] = _ac;\n    }\n\n    function getAccessControl(uint8 ac_id) external view returns (bytes32 accessType,\n                                                                  address account,\n                                                                  bytes32 crypted_AES,\n                                                                  uint8   document_id,\n                                                                  bytes32 document_signature){\n        return (accessControlList[ac_id].accessType,\n                accessControlList[ac_id].account,\n                accessControlList[ac_id].crypted_AES,\n                accessControlList[ac_id].document_id,\n                accessControlList[ac_id].document_signature);\n    }\n\n    function getAccessControlStruct(uint8 ac_id) external view returns (AccessControl memory){\n        return (accessControlList[ac_id]);\n    }\n\n    function getAccessType(uint8 ac_id) external view returns (bytes32 accessType) {\n        return (accessControlList[ac_id].accessType);\n    }\n\n    function updateAccessControl(uint8   ac_id,\n                                 bytes32 accessType,\n                                 address account,\n                                 bytes32 crypted_AES,\n                                 uint8   document_id,\n                                 bytes32 document_signature) external {\n        AccessControl memory _ac = AccessControl({accessType:         accessType,\n                                                  account:            account,\n                                                  crypted_AES:        crypted_AES,\n                                                  document_id:        document_id,\n                                                  document_signature: document_signature});\n        accessControlList[ac_id] = _ac;\n    }\n\n    function deleteAccessControl(uint8 ac_id) external {\n        delete accessControlList[ac_id];\n    }\n\n    // Document\n    struct Document {\n        address owner;\n        uint8   document_id;\n        bytes32 signature;\n    }\n    mapping(uint8 => Document) private sharedDocumentsList;\n\n    function createDocument(address owner, uint8 document_id, bytes32 signature) external {\n        Document memory _document = Document({owner:       owner,\n                                              document_id: document_id,\n                                              signature:   signature});\n        sharedDocumentsList[document_id] = _document;\n    }\n\n    function getDocumentStruct(uint8 document_id) external view returns (Document memory){\n        return (sharedDocumentsList[document_id]);\n    }\n}",
  "sourcePath": "/home/hugo/dev/chainlink-hackaton-2023/record-sharing/contracts/AccessControlService.sol",
  "compiler": {
    "name": "solc",
    "version": "0.7.6+commit.7338295f.Emscripten.clang"
  },
  "schemaVersion": "3.4.14",
  "updatedAt": "2023-06-12T01:31:05.602Z",
  "networkType": "ethereum",
  "devdoc": {
    "kind": "dev",
    "methods": {},
    "version": 1
  },
  "userdoc": {
    "kind": "user",
    "methods": {},
    "version": 1
  }
}