{
  "contractName": "AccessControlService",
  "abi": [
    {
      "inputs": [],
      "stateMutability": "nonpayable",
      "type": "constructor"
    },
    {
      "inputs": [
        {
          "internalType": "string",
          "name": "account",
          "type": "string"
        },
        {
          "internalType": "string",
          "name": "createdBy",
          "type": "string"
        },
        {
          "internalType": "string",
          "name": "login",
          "type": "string"
        },
        {
          "internalType": "string",
          "name": "password",
          "type": "string"
        },
        {
          "internalType": "string",
          "name": "pke2",
          "type": "string"
        },
        {
          "internalType": "string",
          "name": "user_id",
          "type": "string"
        }
      ],
      "name": "createUser",
      "outputs": [],
      "stateMutability": "nonpayable",
      "type": "function"
    },
    {
      "inputs": [
        {
          "internalType": "string",
          "name": "account",
          "type": "string"
        }
      ],
      "name": "auth",
      "outputs": [
        {
          "internalType": "bytes32",
          "name": "login",
          "type": "bytes32"
        },
        {
          "internalType": "bytes32",
          "name": "password",
          "type": "bytes32"
        },
        {
          "internalType": "bytes32",
          "name": "pke2",
          "type": "bytes32"
        }
      ],
      "stateMutability": "view",
      "type": "function",
      "constant": true
    },
    {
      "inputs": [
        {
          "internalType": "string",
          "name": "account",
          "type": "string"
        }
      ],
      "name": "getUser",
      "outputs": [
        {
          "internalType": "uint8",
          "name": "createdBy",
          "type": "uint8"
        },
        {
          "internalType": "bytes32",
          "name": "login",
          "type": "bytes32"
        },
        {
          "internalType": "bytes32",
          "name": "password",
          "type": "bytes32"
        },
        {
          "internalType": "bytes32",
          "name": "pke2",
          "type": "bytes32"
        },
        {
          "internalType": "uint8",
          "name": "user_id",
          "type": "uint8"
        }
      ],
      "stateMutability": "view",
      "type": "function",
      "constant": true
    },
    {
      "inputs": [
        {
          "internalType": "string",
          "name": "account",
          "type": "string"
        }
      ],
      "name": "getUserStruct",
      "outputs": [
        {
          "components": [
            {
              "internalType": "uint8",
              "name": "createdBy",
              "type": "uint8"
            },
            {
              "internalType": "bytes32",
              "name": "login",
              "type": "bytes32"
            },
            {
              "internalType": "bytes32",
              "name": "password",
              "type": "bytes32"
            },
            {
              "internalType": "bytes32",
              "name": "pke2",
              "type": "bytes32"
            },
            {
              "internalType": "uint8",
              "name": "user_id",
              "type": "uint8"
            }
          ],
          "internalType": "struct AccessControlService.User",
          "name": "",
          "type": "tuple"
        }
      ],
      "stateMutability": "view",
      "type": "function",
      "constant": true
    },
    {
      "inputs": [
        {
          "internalType": "string",
          "name": "account",
          "type": "string"
        }
      ],
      "name": "removeUser",
      "outputs": [],
      "stateMutability": "nonpayable",
      "type": "function"
    },
    {
      "inputs": [
        {
          "internalType": "string",
          "name": "ac_id",
          "type": "string"
        },
        {
          "internalType": "string",
          "name": "accessType",
          "type": "string"
        },
        {
          "internalType": "string",
          "name": "account",
          "type": "string"
        },
        {
          "internalType": "string",
          "name": "crypted_AES",
          "type": "string"
        },
        {
          "internalType": "string",
          "name": "document_id",
          "type": "string"
        },
        {
          "internalType": "string",
          "name": "document_signature",
          "type": "string"
        }
      ],
      "name": "addAccessControl",
      "outputs": [],
      "stateMutability": "nonpayable",
      "type": "function"
    },
    {
      "inputs": [
        {
          "internalType": "string",
          "name": "ac_id",
          "type": "string"
        }
      ],
      "name": "getAccessControl",
      "outputs": [
        {
          "internalType": "bytes32",
          "name": "accessType",
          "type": "bytes32"
        },
        {
          "internalType": "address",
          "name": "account",
          "type": "address"
        },
        {
          "internalType": "bytes32",
          "name": "crypted_AES",
          "type": "bytes32"
        },
        {
          "internalType": "uint8",
          "name": "document_id",
          "type": "uint8"
        },
        {
          "internalType": "bytes32",
          "name": "document_signature",
          "type": "bytes32"
        }
      ],
      "stateMutability": "view",
      "type": "function",
      "constant": true
    },
    {
      "inputs": [
        {
          "internalType": "string",
          "name": "ac_id",
          "type": "string"
        }
      ],
      "name": "getAccessControlStruct",
      "outputs": [
        {
          "components": [
            {
              "internalType": "bytes32",
              "name": "accessType",
              "type": "bytes32"
            },
            {
              "internalType": "address",
              "name": "account",
              "type": "address"
            },
            {
              "internalType": "bytes32",
              "name": "crypted_AES",
              "type": "bytes32"
            },
            {
              "internalType": "uint8",
              "name": "document_id",
              "type": "uint8"
            },
            {
              "internalType": "bytes32",
              "name": "document_signature",
              "type": "bytes32"
            }
          ],
          "internalType": "struct AccessControlService.AccessControl",
          "name": "",
          "type": "tuple"
        }
      ],
      "stateMutability": "view",
      "type": "function",
      "constant": true
    },
    {
      "inputs": [
        {
          "internalType": "string",
          "name": "ac_id",
          "type": "string"
        }
      ],
      "name": "getAccessType",
      "outputs": [
        {
          "internalType": "bytes32",
          "name": "accessType",
          "type": "bytes32"
        }
      ],
      "stateMutability": "view",
      "type": "function",
      "constant": true
    },
    {
      "inputs": [
        {
          "internalType": "string",
          "name": "ac_id",
          "type": "string"
        },
        {
          "internalType": "string",
          "name": "accessType",
          "type": "string"
        },
        {
          "internalType": "string",
          "name": "account",
          "type": "string"
        },
        {
          "internalType": "string",
          "name": "crypted_AES",
          "type": "string"
        },
        {
          "internalType": "string",
          "name": "document_id",
          "type": "string"
        },
        {
          "internalType": "string",
          "name": "document_signature",
          "type": "string"
        }
      ],
      "name": "updateAccessControl",
      "outputs": [],
      "stateMutability": "nonpayable",
      "type": "function"
    },
    {
      "inputs": [
        {
          "internalType": "string",
          "name": "ac_id",
          "type": "string"
        }
      ],
      "name": "deleteAccessControl",
      "outputs": [],
      "stateMutability": "nonpayable",
      "type": "function"
    },
    {
      "inputs": [
        {
          "internalType": "string",
          "name": "owner",
          "type": "string"
        },
        {
          "internalType": "string",
          "name": "document_id",
          "type": "string"
        },
        {
          "internalType": "string",
          "name": "signature",
          "type": "string"
        }
      ],
      "name": "createDocument",
      "outputs": [],
      "stateMutability": "nonpayable",
      "type": "function"
    },
    {
      "inputs": [
        {
          "internalType": "string",
          "name": "document_id",
          "type": "string"
        }
      ],
      "name": "getDocumentStruct",
      "outputs": [
        {
          "components": [
            {
              "internalType": "address",
              "name": "owner",
              "type": "address"
            },
            {
              "internalType": "uint8",
              "name": "document_id",
              "type": "uint8"
            },
            {
              "internalType": "bytes32",
              "name": "signature",
              "type": "bytes32"
            }
          ],
          "internalType": "struct AccessControlService.Document",
          "name": "",
          "type": "tuple"
        }
      ],
      "stateMutability": "view",
      "type": "function",
      "constant": true
    }
  ],
  "bytecode": "0x608060405234801561001057600080fd5b5060ff6000806101000a81548160ff021916908360ff16021790555061175e8061003b6000396000f3fe608060405234801561001057600080fd5b50600436106100cf5760003560e01c806361b2c9101161008c578063a8f79d1411610066578063a8f79d1414610250578063b7d3d7541461026c578063e43b0e9414610288578063e4db2ceb146102a4576100cf565b806361b2c910146101bc5780637e8cd147146101f057806399449ad214610220576100cf565b806301dadb2b146100d457806331feb671146100f057806355e798691461012457806357c13615146101545780635ec4382514610184578063600cee78146101a0575b600080fd5b6100ee60048036038101906100e9919061120e565b6102d6565b005b61010a60048036038101906101059190611136565b610428565b60405161011b9594939291906115d1565b60405180910390f35b61013e60048036038101906101399190611136565b6105da565b60405161014b91906115b6565b60405180910390f35b61016e60048036038101906101699190611136565b6106ba565b60405161017b9190611580565b60405180910390f35b61019e60048036038101906101999190611177565b61078c565b005b6101ba60048036038101906101b59190611136565b6108a4565b005b6101d660048036038101906101d19190611136565b610958565b6040516101e79594939291906114f6565b60405180910390f35b61020a60048036038101906102059190611136565b610a3e565b60405161021791906114db565b60405180910390f35b61023a60048036038101906102359190611136565b610a71565b604051610247919061159b565b60405180910390f35b61026a60048036038101906102659190611136565b610b2f565b005b6102866004803603810190610281919061120e565b610baf565b005b6102a2600480360381019061029d919061120e565b610d14565b005b6102be60048036038101906102b99190611136565b610e79565b6040516102cd93929190611549565b60405180910390f35b6000866040516020016102e991906114c4565b6040516020818303038152906040528051906020012060601c9050600061030f87610f82565b9050600061031c87610ff4565b9050600061032987610ff4565b9050600061033687610ff4565b9050600061034387610f82565b905060006040518060a001604052808760ff1681526020018681526020018581526020018481526020018360ff16815250905080600160008973ffffffffffffffffffffffffffffffffffffffff1673ffffffffffffffffffffffffffffffffffffffff16815260200190815260200160002060008201518160000160006101000a81548160ff021916908360ff16021790555060208201518160010155604082015181600201556060820151816003015560808201518160040160006101000a81548160ff021916908360ff16021790555090505050505050505050505050505050565b6000806000806000808660405160200161044291906114c4565b6040516020818303038152906040528051906020012060601c9050600160008273ffffffffffffffffffffffffffffffffffffffff1673ffffffffffffffffffffffffffffffffffffffff16815260200190815260200160002060000160009054906101000a900460ff16600160008373ffffffffffffffffffffffffffffffffffffffff1673ffffffffffffffffffffffffffffffffffffffff16815260200190815260200160002060010154600160008473ffffffffffffffffffffffffffffffffffffffff1673ffffffffffffffffffffffffffffffffffffffff16815260200190815260200160002060020154600160008573ffffffffffffffffffffffffffffffffffffffff1673ffffffffffffffffffffffffffffffffffffffff16815260200190815260200160002060030154600160008673ffffffffffffffffffffffffffffffffffffffff1673ffffffffffffffffffffffffffffffffffffffff16815260200190815260200160002060040160009054906101000a900460ff16955095509550955095505091939590929450565b6105e2611002565b6000826040516020016105f591906114c4565b6040516020818303038152906040528051906020012060601c9050600160008273ffffffffffffffffffffffffffffffffffffffff1673ffffffffffffffffffffffffffffffffffffffff1681526020019081526020016000206040518060a00160405290816000820160009054906101000a900460ff1660ff1660ff1681526020016001820154815260200160028201548152602001600382015481526020016004820160009054906101000a900460ff1660ff1660ff1681525050915050919050565b6106c2611040565b60006106cd83610f82565b9050600260008260ff1660ff1681526020019081526020016000206040518060a0016040529081600082015481526020016001820160009054906101000a900473ffffffffffffffffffffffffffffffffffffffff1673ffffffffffffffffffffffffffffffffffffffff1673ffffffffffffffffffffffffffffffffffffffff168152602001600282015481526020016003820160009054906101000a900460ff1660ff1660ff168152602001600482015481525050915050919050565b60008360405160200161079f91906114c4565b6040516020818303038152906040528051906020012060601c905060006107c584610f82565b905060006107d284610ff4565b9050600060405180606001604052808573ffffffffffffffffffffffffffffffffffffffff1681526020018460ff16815260200183815250905080600360008560ff1660ff16815260200190815260200160002060008201518160000160006101000a81548173ffffffffffffffffffffffffffffffffffffffff021916908373ffffffffffffffffffffffffffffffffffffffff16021790555060208201518160000160146101000a81548160ff021916908360ff1602179055506040820151816001015590505050505050505050565b6000816040516020016108b791906114c4565b6040516020818303038152906040528051906020012060601c9050600160008273ffffffffffffffffffffffffffffffffffffffff1673ffffffffffffffffffffffffffffffffffffffff168152602001908152602001600020600080820160006101000a81549060ff02191690556001820160009055600282016000905560038201600090556004820160006101000a81549060ff021916905550505050565b60008060008060008061096a87610f82565b9050600260008260ff1660ff16815260200190815260200160002060000154600260008360ff1660ff16815260200190815260200160002060010160009054906101000a900473ffffffffffffffffffffffffffffffffffffffff16600260008460ff1660ff16815260200190815260200160002060020154600260008560ff1660ff16815260200190815260200160002060030160009054906101000a900460ff16600260008660ff1660ff16815260200190815260200160002060040154955095509550955095505091939590929450565b600080610a4a83610f82565b9050600260008260ff1660ff16815260200190815260200160002060000154915050919050565b610a79611091565b6000610a8483610f82565b9050600360008260ff1660ff1681526020019081526020016000206040518060600160405290816000820160009054906101000a900473ffffffffffffffffffffffffffffffffffffffff1673ffffffffffffffffffffffffffffffffffffffff1673ffffffffffffffffffffffffffffffffffffffff1681526020016000820160149054906101000a900460ff1660ff1660ff168152602001600182015481525050915050919050565b6000610b3a82610f82565b9050600260008260ff1660ff1681526020019081526020016000206000808201600090556001820160006101000a81549073ffffffffffffffffffffffffffffffffffffffff021916905560028201600090556003820160006101000a81549060ff0219169055600482016000905550505050565b6000610bba87610f82565b90506000610bc787610ff4565b9050600086604051602001610bdc91906114c4565b6040516020818303038152906040528051906020012060601c90506000610c0287610ff4565b90506000610c0f87610f82565b90506000610c1c87610ff4565b905060006040518060a001604052808781526020018673ffffffffffffffffffffffffffffffffffffffff1681526020018581526020018460ff16815260200183815250905080600260008960ff1660ff1681526020019081526020016000206000820151816000015560208201518160010160006101000a81548173ffffffffffffffffffffffffffffffffffffffff021916908373ffffffffffffffffffffffffffffffffffffffff1602179055506040820151816002015560608201518160030160006101000a81548160ff021916908360ff1602179055506080820151816004015590505050505050505050505050505050565b6000610d1f87610f82565b90506000610d2c87610ff4565b9050600086604051602001610d4191906114c4565b6040516020818303038152906040528051906020012060601c90506000610d6787610ff4565b90506000610d7487610f82565b90506000610d8187610ff4565b905060006040518060a001604052808781526020018673ffffffffffffffffffffffffffffffffffffffff1681526020018581526020018460ff16815260200183815250905080600260008960ff1660ff1681526020019081526020016000206000820151816000015560208201518160010160006101000a81548173ffffffffffffffffffffffffffffffffffffffff021916908373ffffffffffffffffffffffffffffffffffffffff1602179055506040820151816002015560608201518160030160006101000a81548160ff021916908360ff1602179055506080820151816004015590505050505050505050505050505050565b60008060008084604051602001610e9091906114c4565b6040516020818303038152906040528051906020012060601c9050600160008273ffffffffffffffffffffffffffffffffffffffff1673ffffffffffffffffffffffffffffffffffffffff16815260200190815260200160002060010154600160008373ffffffffffffffffffffffffffffffffffffffff1673ffffffffffffffffffffffffffffffffffffffff16815260200190815260200160002060020154600160008473ffffffffffffffffffffffffffffffffffffffff1673ffffffffffffffffffffffffffffffffffffffff16815260200190815260200160002060030154935093509350509193909250565b6000808290506000915060005b8151811015610fed576000828281518110610fa657fe5b602001015160f81c60f81b60f81c905060308160ff1610158015610fce575060398160ff1611155b15610fdf5760308103600a85020193505b508080600101915050610f8f565b5050919050565b600060208201519050919050565b6040518060a00160405280600060ff168152602001600080191681526020016000801916815260200160008019168152602001600060ff1681525090565b6040518060a0016040528060008019168152602001600073ffffffffffffffffffffffffffffffffffffffff16815260200160008019168152602001600060ff168152602001600080191681525090565b6040518060600160405280600073ffffffffffffffffffffffffffffffffffffffff168152602001600060ff168152602001600080191681525090565b60006110e16110dc84611655565b611624565b9050828152602081018484840111156110f957600080fd5b6111048482856116e4565b509392505050565b600082601f83011261111d57600080fd5b813561112d8482602086016110ce565b91505092915050565b60006020828403121561114857600080fd5b600082013567ffffffffffffffff81111561116257600080fd5b61116e8482850161110c565b91505092915050565b60008060006060848603121561118c57600080fd5b600084013567ffffffffffffffff8111156111a657600080fd5b6111b28682870161110c565b935050602084013567ffffffffffffffff8111156111cf57600080fd5b6111db8682870161110c565b925050604084013567ffffffffffffffff8111156111f857600080fd5b6112048682870161110c565b9150509250925092565b60008060008060008060c0878903121561122757600080fd5b600087013567ffffffffffffffff81111561124157600080fd5b61124d89828a0161110c565b965050602087013567ffffffffffffffff81111561126a57600080fd5b61127689828a0161110c565b955050604087013567ffffffffffffffff81111561129357600080fd5b61129f89828a0161110c565b945050606087013567ffffffffffffffff8111156112bc57600080fd5b6112c889828a0161110c565b935050608087013567ffffffffffffffff8111156112e557600080fd5b6112f189828a0161110c565b92505060a087013567ffffffffffffffff81111561130e57600080fd5b61131a89828a0161110c565b9150509295509295509295565b6113308161169b565b82525050565b61133f8161169b565b82525050565b61134e816116ad565b82525050565b61135d816116ad565b82525050565b600061136e82611685565b6113788185611690565b93506113888185602086016116f3565b80840191505092915050565b60a0820160008201516113aa6000850182611345565b5060208201516113bd6020850182611327565b5060408201516113d06040850182611345565b5060608201516113e360608501826114a6565b5060808201516113f66080850182611345565b50505050565b6060820160008201516114126000850182611327565b50602082015161142560208501826114a6565b5060408201516114386040850182611345565b50505050565b60a08201600082015161145460008501826114a6565b5060208201516114676020850182611345565b50604082015161147a6040850182611345565b50606082015161148d6060850182611345565b5060808201516114a060808501826114a6565b50505050565b6114af816116d7565b82525050565b6114be816116d7565b82525050565b60006114d08284611363565b915081905092915050565b60006020820190506114f06000830184611354565b92915050565b600060a08201905061150b6000830188611354565b6115186020830187611336565b6115256040830186611354565b61153260608301856114b5565b61153f6080830184611354565b9695505050505050565b600060608201905061155e6000830186611354565b61156b6020830185611354565b6115786040830184611354565b949350505050565b600060a0820190506115956000830184611394565b92915050565b60006060820190506115b060008301846113fc565b92915050565b600060a0820190506115cb600083018461143e565b92915050565b600060a0820190506115e660008301886114b5565b6115f36020830187611354565b6116006040830186611354565b61160d6060830185611354565b61161a60808301846114b5565b9695505050505050565b6000604051905081810181811067ffffffffffffffff8211171561164b5761164a611726565b5b8060405250919050565b600067ffffffffffffffff8211156116705761166f611726565b5b601f19601f8301169050602081019050919050565b600081519050919050565b600081905092915050565b60006116a6826116b7565b9050919050565b6000819050919050565b600073ffffffffffffffffffffffffffffffffffffffff82169050919050565b600060ff82169050919050565b82818337600083830152505050565b60005b838110156117115780820151818401526020810190506116f6565b83811115611720576000848401525b50505050565bfefea264697066735822122093c1b34d41888d4bca01ff38dd62669c05a441573f89fc6a322de784f338dd9f64736f6c63430007060033",
  "immutableReferences": {},
  "source": "// contracts/aclService.sol\n// SPDX-License-Identifier: MIT\npragma solidity ^0.7.0;\npragma experimental ABIEncoderV2;\n\ncontract AccessControlService {\n    uint8 max_user_id;\n\n    constructor () {\n        max_user_id = 255;\n    }\n\n    function string2bytes32(string memory s) private pure returns (bytes32 b) {\n        assembly {\n        b := mload(add(s, 32))\n        }\n    }\n\n    function string2uint8(string memory s) private pure returns (uint8 u) {\n        bytes memory b = bytes(s);\n        u = 0;\n        for (uint i = 0; i < b.length; i++) {\n            uint8 c = uint8(b[i]);\n            if (c >= 48 && c <= 57) {\n                u = u * 10 + (c - 48);\n            }\n        }\n    }    \n\n    // Users\n    struct User {\n        uint8   createdBy;\n        bytes32 login;\n        bytes32 password;\n        bytes32 pke2;\n        uint8   user_id;\n    }\n    mapping(address => User) private usersList;\n\n    // function createUser(address account,\n    //                     uint8   createdBy,\n    //                     bytes32 login,\n    //                     bytes32 password,\n    //                     bytes32 pke2,\n    //                     uint8   user_id) external {\n    function createUser(string memory account,\n                        string memory createdBy,\n                        string memory login,\n                        string memory password,\n                        string memory pke2,\n                        string memory user_id) external {\n        address _account   = address(uint160(bytes20(keccak256(abi.encodePacked(account))))); \n        uint8   _createdBy = string2uint8(createdBy);\n        bytes32 _login     = string2bytes32(login);\n        bytes32 _password  = string2bytes32(password);\n        bytes32 _pke2      = string2bytes32(pke2);\n        uint8   _user_id   = string2uint8(user_id);\n        User memory _user = User({createdBy: _createdBy,\n                                  login:     _login,\n                                  password:  _password,\n                                  pke2:      _pke2,\n                                  user_id:   _user_id});\n        usersList[_account] = _user;\n    }\n\n    // function auth(address account) external view returns (bytes32 login, bytes32 password, bytes32 pke2) {\n    function auth(string memory account) external view returns (bytes32 login, bytes32 password, bytes32 pke2) {\n        address _account = address(uint160(bytes20(keccak256(abi.encodePacked(account))))); \n        return(usersList[_account].login,\n               usersList[_account].password,\n               usersList[_account].pke2);\n    }\n\n    // function getUser(address account) external view returns (uint8 createdBy, bytes32 login, bytes32 password, bytes32 pke2, uint8 user_id) {\n    function getUser(string memory account) external view returns (uint8 createdBy, bytes32 login, bytes32 password, bytes32 pke2, uint8 user_id) {\n        address _account = address(uint160(bytes20(keccak256(abi.encodePacked(account)))));\n        return(usersList[_account].createdBy,\n               usersList[_account].login,\n               usersList[_account].password,\n               usersList[_account].pke2,\n               usersList[_account].user_id);\n    }\n\n    // function getUserStruct(address account) external view returns (User memory) {\n    function getUserStruct(string memory account) external view returns (User memory) {\n        address _account = address(uint160(bytes20(keccak256(abi.encodePacked(account))))); \n        return(usersList[_account]);\n    }\n\n    // function removeUser(address account) external {\n    function removeUser(string memory account) external {\n        address _account = address(uint160(bytes20(keccak256(abi.encodePacked(account))))); \n        delete usersList[_account];\n    }\n\n    // AccessControl\n    struct AccessControl {\n        bytes32 accessType;\n        address account;\n        bytes32 crypted_AES;\n        uint8   document_id;\n        bytes32 document_signature;\n    }\n    mapping(uint8 => AccessControl) private accessControlList;\n\n    // function addAccessControl(uint8   ac_id,\n    //                           bytes32 accessType,\n    //                           address account,\n    //                           bytes32 crypted_AES,\n    //                           uint8   document_id,\n    //                           bytes32 document_signature) external {\n    function addAccessControl(string memory ac_id,\n                              string memory accessType,\n                              string memory account,\n                              string memory crypted_AES,\n                              string memory document_id,\n                              string memory document_signature) external {\n        uint8   _ac_id              = string2uint8(ac_id);\n        bytes32 _accessType         = string2bytes32(accessType);\n        address _account            = address(uint160(bytes20(keccak256(abi.encodePacked(account)))));   \n        bytes32 _crypted_AES        = string2bytes32(crypted_AES);\n        uint8   _document_id        = string2uint8(document_id);\n        bytes32 _document_signature = string2bytes32(document_signature);                                    \n        AccessControl memory _ac = AccessControl({accessType:         _accessType,\n                                                  account:            _account,\n                                                  crypted_AES:        _crypted_AES,\n                                                  document_id:        _document_id,\n                                                  document_signature: _document_signature});\n        accessControlList[_ac_id] = _ac;\n    }\n\n    // function getAccessControl(uint8 ac_id) external view returns (bytes32 accessType,\n    function getAccessControl(string memory ac_id) external view returns (bytes32 accessType,\n                                                                  address account,\n                                                                  bytes32 crypted_AES,\n                                                                  uint8   document_id,\n                                                                  bytes32 document_signature){\n        uint8 _ac_id = string2uint8(ac_id);\n        return (accessControlList[_ac_id].accessType,\n                accessControlList[_ac_id].account,\n                accessControlList[_ac_id].crypted_AES,\n                accessControlList[_ac_id].document_id,\n                accessControlList[_ac_id].document_signature);\n    }\n\n    // function getAccessControlStruct(uint8 ac_id) external view returns (AccessControl memory){\n    function getAccessControlStruct(string memory ac_id) external view returns (AccessControl memory){\n        uint8 _ac_id = string2uint8(ac_id);\n        return (accessControlList[_ac_id]);\n    }\n\n    // function getAccessType(uint8 ac_id) external view returns (bytes32 accessType) {\n    function getAccessType(string memory ac_id) external view returns (bytes32 accessType) {\n        uint8 _ac_id = string2uint8(ac_id);\n        return (accessControlList[_ac_id].accessType);\n    }\n\n    // function updateAccessControl(uint8   ac_id,\n    //                              bytes32 accessType,\n    //                              address account,\n    //                              bytes32 crypted_AES,\n    //                              uint8   document_id,\n    //                              bytes32 document_signature) external {\n    function updateAccessControl(string memory ac_id,\n                                 string memory accessType,\n                                 string memory account,\n                                 string memory crypted_AES,\n                                 string memory document_id,\n                                 string memory document_signature) external {\n        uint8   _ac_id              = string2uint8(ac_id);\n        bytes32 _accessType         = string2bytes32(accessType);\n        address _account            = address(uint160(bytes20(keccak256(abi.encodePacked(account)))));   \n        bytes32 _crypted_AES        = string2bytes32(crypted_AES);\n        uint8   _document_id        = string2uint8(document_id);\n        bytes32 _document_signature = string2bytes32(document_signature);                                    \n        AccessControl memory _ac = AccessControl({accessType:         _accessType,\n                                                  account:            _account,\n                                                  crypted_AES:        _crypted_AES,\n                                                  document_id:        _document_id,\n                                                  document_signature: _document_signature});\n        accessControlList[_ac_id] = _ac;\n    }\n\n    // function deleteAccessControl(uint8 ac_id) external {\n    function deleteAccessControl(string memory ac_id) external {\n        uint8 _ac_id = string2uint8(ac_id);\n        delete accessControlList[_ac_id];\n    }\n\n    // Document\n    struct Document {\n        address owner;\n        uint8   document_id;\n        bytes32 signature;\n    }\n    mapping(uint8 => Document) private sharedDocumentsList;\n\n    // function createDocument(address owner, uint8 document_id, bytes32 signature) external {\n    function createDocument(string memory owner, string memory document_id, string memory signature) external {\n        address _owner       = address(uint160(bytes20(keccak256(abi.encodePacked(owner)))));   \n        uint8   _document_id = string2uint8(document_id);\n        bytes32 _signature   = string2bytes32(signature);\n        Document memory _document = Document({owner:       _owner, \n                                              document_id: _document_id, \n                                              signature:   _signature});\n        sharedDocumentsList[_document_id] = _document;\n    }\n\n    // function getDocumentStruct(uint8 document_id) external view returns (Document memory){\n    function getDocumentStruct(string memory document_id) external view returns (Document memory){\n        uint8 _document_id = string2uint8(document_id);\n        return (sharedDocumentsList[_document_id]);\n    }\n}",
  "sourcePath": "/home/hugo/dev/chainlink-hackaton-2023/record-sharing/contracts/AccessControlService.sol",
  "compiler": {
    "name": "solc",
    "version": "0.7.6+commit.7338295f.Emscripten.clang"
  },
  "schemaVersion": "3.4.14",
  "updatedAt": "2023-06-10T01:48:42.101Z",
  "networkType": "ethereum",
  "devdoc": {
    "kind": "dev",
    "methods": {},
    "version": 1
  },
  "userdoc": {
    "kind": "user",
    "methods": {},
    "version": 1
  }
}